{
  "_format": "hh-sol-artifact-1",
  "contractName": "MyOFTMock",
  "sourceName": "contracts/mocks/MyOFTMock.sol",
  "abi": [
    {
      "inputs": [
        {
          "internalType": "string",
          "name": "_name",
          "type": "string"
        },
        {
          "internalType": "string",
          "name": "_symbol",
          "type": "string"
        },
        {
          "internalType": "address",
          "name": "_lzEndpoint",
          "type": "address"
        },
        {
          "internalType": "address",
          "name": "_delegate",
          "type": "address"
        }
      ],
      "stateMutability": "nonpayable",
      "type": "constructor"
    },
    {
      "inputs": [
        {
          "internalType": "address",
          "name": "spender",
          "type": "address"
        },
        {
          "internalType": "uint256",
          "name": "allowance",
          "type": "uint256"
        },
        {
          "internalType": "uint256",
          "name": "needed",
          "type": "uint256"
        }
      ],
      "name": "ERC20InsufficientAllowance",
      "type": "error"
    },
    {
      "inputs": [
        {
          "internalType": "address",
          "name": "sender",
          "type": "address"
        },
        {
          "internalType": "uint256",
          "name": "balance",
          "type": "uint256"
        },
        {
          "internalType": "uint256",
          "name": "needed",
          "type": "uint256"
        }
      ],
      "name": "ERC20InsufficientBalance",
      "type": "error"
    },
    {
      "inputs": [
        {
          "internalType": "address",
          "name": "approver",
          "type": "address"
        }
      ],
      "name": "ERC20InvalidApprover",
      "type": "error"
    },
    {
      "inputs": [
        {
          "internalType": "address",
          "name": "receiver",
          "type": "address"
        }
      ],
      "name": "ERC20InvalidReceiver",
      "type": "error"
    },
    {
      "inputs": [
        {
          "internalType": "address",
          "name": "sender",
          "type": "address"
        }
      ],
      "name": "ERC20InvalidSender",
      "type": "error"
    },
    {
      "inputs": [
        {
          "internalType": "address",
          "name": "spender",
          "type": "address"
        }
      ],
      "name": "ERC20InvalidSpender",
      "type": "error"
    },
    {
      "inputs": [],
      "name": "InvalidDelegate",
      "type": "error"
    },
    {
      "inputs": [],
      "name": "InvalidEndpointCall",
      "type": "error"
    },
    {
      "inputs": [],
      "name": "InvalidLocalDecimals",
      "type": "error"
    },
    {
      "inputs": [
        {
          "internalType": "bytes",
          "name": "options",
          "type": "bytes"
        }
      ],
      "name": "InvalidOptions",
      "type": "error"
    },
    {
      "inputs": [],
      "name": "LzTokenUnavailable",
      "type": "error"
    },
    {
      "inputs": [
        {
          "internalType": "uint32",
          "name": "eid",
          "type": "uint32"
        }
      ],
      "name": "NoPeer",
      "type": "error"
    },
    {
      "inputs": [
        {
          "internalType": "uint256",
          "name": "msgValue",
          "type": "uint256"
        }
      ],
      "name": "NotEnoughNative",
      "type": "error"
    },
    {
      "inputs": [
        {
          "internalType": "address",
          "name": "addr",
          "type": "address"
        }
      ],
      "name": "OnlyEndpoint",
      "type": "error"
    },
    {
      "inputs": [
        {
          "internalType": "uint32",
          "name": "eid",
          "type": "uint32"
        },
        {
          "internalType": "bytes32",
          "name": "sender",
          "type": "bytes32"
        }
      ],
      "name": "OnlyPeer",
      "type": "error"
    },
    {
      "inputs": [],
      "name": "OnlySelf",
      "type": "error"
    },
    {
      "inputs": [
        {
          "internalType": "address",
          "name": "owner",
          "type": "address"
        }
      ],
      "name": "OwnableInvalidOwner",
      "type": "error"
    },
    {
      "inputs": [
        {
          "internalType": "address",
          "name": "account",
          "type": "address"
        }
      ],
      "name": "OwnableUnauthorizedAccount",
      "type": "error"
    },
    {
      "inputs": [
        {
          "internalType": "address",
          "name": "token",
          "type": "address"
        }
      ],
      "name": "SafeERC20FailedOperation",
      "type": "error"
    },
    {
      "inputs": [
        {
          "internalType": "bytes",
          "name": "result",
          "type": "bytes"
        }
      ],
      "name": "SimulationResult",
      "type": "error"
    },
    {
      "inputs": [
        {
          "internalType": "uint256",
          "name": "amountLD",
          "type": "uint256"
        },
        {
          "internalType": "uint256",
          "name": "minAmountLD",
          "type": "uint256"
        }
      ],
      "name": "SlippageExceeded",
      "type": "error"
    },
    {
      "anonymous": false,
      "inputs": [
        {
          "indexed": true,
          "internalType": "address",
          "name": "owner",
          "type": "address"
        },
        {
          "indexed": true,
          "internalType": "address",
          "name": "spender",
          "type": "address"
        },
        {
          "indexed": false,
          "internalType": "uint256",
          "name": "value",
          "type": "uint256"
        }
      ],
      "name": "Approval",
      "type": "event"
    },
    {
      "anonymous": false,
      "inputs": [
        {
          "components": [
            {
              "internalType": "uint32",
              "name": "eid",
              "type": "uint32"
            },
            {
              "internalType": "uint16",
              "name": "msgType",
              "type": "uint16"
            },
            {
              "internalType": "bytes",
              "name": "options",
              "type": "bytes"
            }
          ],
          "indexed": false,
          "internalType": "struct EnforcedOptionParam[]",
          "name": "_enforcedOptions",
          "type": "tuple[]"
        }
      ],
      "name": "EnforcedOptionSet",
      "type": "event"
    },
    {
      "anonymous": false,
      "inputs": [
        {
          "indexed": false,
          "internalType": "address",
          "name": "inspector",
          "type": "address"
        }
      ],
      "name": "MsgInspectorSet",
      "type": "event"
    },
    {
      "anonymous": false,
      "inputs": [
        {
          "indexed": true,
          "internalType": "bytes32",
          "name": "guid",
          "type": "bytes32"
        },
        {
          "indexed": false,
          "internalType": "uint32",
          "name": "srcEid",
          "type": "uint32"
        },
        {
          "indexed": true,
          "internalType": "address",
          "name": "toAddress",
          "type": "address"
        },
        {
          "indexed": false,
          "internalType": "uint256",
          "name": "amountReceivedLD",
          "type": "uint256"
        }
      ],
      "name": "OFTReceived",
      "type": "event"
    },
    {
      "anonymous": false,
      "inputs": [
        {
          "indexed": true,
          "internalType": "bytes32",
          "name": "guid",
          "type": "bytes32"
        },
        {
          "indexed": false,
          "internalType": "uint32",
          "name": "dstEid",
          "type": "uint32"
        },
        {
          "indexed": true,
          "internalType": "address",
          "name": "fromAddress",
          "type": "address"
        },
        {
          "indexed": false,
          "internalType": "uint256",
          "name": "amountSentLD",
          "type": "uint256"
        },
        {
          "indexed": false,
          "internalType": "uint256",
          "name": "amountReceivedLD",
          "type": "uint256"
        }
      ],
      "name": "OFTSent",
      "type": "event"
    },
    {
      "anonymous": false,
      "inputs": [
        {
          "indexed": true,
          "internalType": "address",
          "name": "previousOwner",
          "type": "address"
        },
        {
          "indexed": true,
          "internalType": "address",
          "name": "newOwner",
          "type": "address"
        }
      ],
      "name": "OwnershipTransferred",
      "type": "event"
    },
    {
      "anonymous": false,
      "inputs": [
        {
          "indexed": false,
          "internalType": "uint32",
          "name": "eid",
          "type": "uint32"
        },
        {
          "indexed": false,
          "internalType": "bytes32",
          "name": "peer",
          "type": "bytes32"
        }
      ],
      "name": "PeerSet",
      "type": "event"
    },
    {
      "anonymous": false,
      "inputs": [
        {
          "indexed": false,
          "internalType": "address",
          "name": "preCrimeAddress",
          "type": "address"
        }
      ],
      "name": "PreCrimeSet",
      "type": "event"
    },
    {
      "anonymous": false,
      "inputs": [
        {
          "indexed": true,
          "internalType": "address",
          "name": "from",
          "type": "address"
        },
        {
          "indexed": true,
          "internalType": "address",
          "name": "to",
          "type": "address"
        },
        {
          "indexed": false,
          "internalType": "uint256",
          "name": "value",
          "type": "uint256"
        }
      ],
      "name": "Transfer",
      "type": "event"
    },
    {
      "inputs": [],
      "name": "MAIN_CHAIN_ID",
      "outputs": [
        {
          "internalType": "uint256",
          "name": "",
          "type": "uint256"
        }
      ],
      "stateMutability": "view",
      "type": "function"
    },
    {
      "inputs": [],
      "name": "MAX_SUPPLY",
      "outputs": [
        {
          "internalType": "uint256",
          "name": "",
          "type": "uint256"
        }
      ],
      "stateMutability": "view",
      "type": "function"
    },
    {
      "inputs": [],
      "name": "SEND",
      "outputs": [
        {
          "internalType": "uint16",
          "name": "",
          "type": "uint16"
        }
      ],
      "stateMutability": "view",
      "type": "function"
    },
    {
      "inputs": [],
      "name": "SEND_AND_CALL",
      "outputs": [
        {
          "internalType": "uint16",
          "name": "",
          "type": "uint16"
        }
      ],
      "stateMutability": "view",
      "type": "function"
    },
    {
      "inputs": [
        {
          "components": [
            {
              "internalType": "uint32",
              "name": "srcEid",
              "type": "uint32"
            },
            {
              "internalType": "bytes32",
              "name": "sender",
              "type": "bytes32"
            },
            {
              "internalType": "uint64",
              "name": "nonce",
              "type": "uint64"
            }
          ],
          "internalType": "struct Origin",
          "name": "origin",
          "type": "tuple"
        }
      ],
      "name": "allowInitializePath",
      "outputs": [
        {
          "internalType": "bool",
          "name": "",
          "type": "bool"
        }
      ],
      "stateMutability": "view",
      "type": "function"
    },
    {
      "inputs": [
        {
          "internalType": "address",
          "name": "owner",
          "type": "address"
        },
        {
          "internalType": "address",
          "name": "spender",
          "type": "address"
        }
      ],
      "name": "allowance",
      "outputs": [
        {
          "internalType": "uint256",
          "name": "",
          "type": "uint256"
        }
      ],
      "stateMutability": "view",
      "type": "function"
    },
    {
      "inputs": [],
      "name": "approvalRequired",
      "outputs": [
        {
          "internalType": "bool",
          "name": "",
          "type": "bool"
        }
      ],
      "stateMutability": "pure",
      "type": "function"
    },
    {
      "inputs": [
        {
          "internalType": "address",
          "name": "spender",
          "type": "address"
        },
        {
          "internalType": "uint256",
          "name": "value",
          "type": "uint256"
        }
      ],
      "name": "approve",
      "outputs": [
        {
          "internalType": "bool",
          "name": "",
          "type": "bool"
        }
      ],
      "stateMutability": "nonpayable",
      "type": "function"
    },
    {
      "inputs": [
        {
          "internalType": "address",
          "name": "account",
          "type": "address"
        }
      ],
      "name": "balanceOf",
      "outputs": [
        {
          "internalType": "uint256",
          "name": "",
          "type": "uint256"
        }
      ],
      "stateMutability": "view",
      "type": "function"
    },
    {
      "inputs": [
        {
          "internalType": "uint32",
          "name": "_eid",
          "type": "uint32"
        },
        {
          "internalType": "uint16",
          "name": "_msgType",
          "type": "uint16"
        },
        {
          "internalType": "bytes",
          "name": "_extraOptions",
          "type": "bytes"
        }
      ],
      "name": "combineOptions",
      "outputs": [
        {
          "internalType": "bytes",
          "name": "",
          "type": "bytes"
        }
      ],
      "stateMutability": "view",
      "type": "function"
    },
    {
      "inputs": [],
      "name": "decimalConversionRate",
      "outputs": [
        {
          "internalType": "uint256",
          "name": "",
          "type": "uint256"
        }
      ],
      "stateMutability": "view",
      "type": "function"
    },
    {
      "inputs": [],
      "name": "decimals",
      "outputs": [
        {
          "internalType": "uint8",
          "name": "",
          "type": "uint8"
        }
      ],
      "stateMutability": "view",
      "type": "function"
    },
    {
      "inputs": [],
      "name": "endpoint",
      "outputs": [
        {
          "internalType": "contract ILayerZeroEndpointV2",
          "name": "",
          "type": "address"
        }
      ],
      "stateMutability": "view",
      "type": "function"
    },
    {
      "inputs": [
        {
          "internalType": "uint32",
          "name": "eid",
          "type": "uint32"
        },
        {
          "internalType": "uint16",
          "name": "msgType",
          "type": "uint16"
        }
      ],
      "name": "enforcedOptions",
      "outputs": [
        {
          "internalType": "bytes",
          "name": "enforcedOption",
          "type": "bytes"
        }
      ],
      "stateMutability": "view",
      "type": "function"
    },
    {
      "inputs": [
        {
          "components": [
            {
              "internalType": "uint32",
              "name": "srcEid",
              "type": "uint32"
            },
            {
              "internalType": "bytes32",
              "name": "sender",
              "type": "bytes32"
            },
            {
              "internalType": "uint64",
              "name": "nonce",
              "type": "uint64"
            }
          ],
          "internalType": "struct Origin",
          "name": "",
          "type": "tuple"
        },
        {
          "internalType": "bytes",
          "name": "",
          "type": "bytes"
        },
        {
          "internalType": "address",
          "name": "_sender",
          "type": "address"
        }
      ],
      "name": "isComposeMsgSender",
      "outputs": [
        {
          "internalType": "bool",
          "name": "",
          "type": "bool"
        }
      ],
      "stateMutability": "view",
      "type": "function"
    },
    {
      "inputs": [
        {
          "internalType": "uint32",
          "name": "_eid",
          "type": "uint32"
        },
        {
          "internalType": "bytes32",
          "name": "_peer",
          "type": "bytes32"
        }
      ],
      "name": "isPeer",
      "outputs": [
        {
          "internalType": "bool",
          "name": "",
          "type": "bool"
        }
      ],
      "stateMutability": "view",
      "type": "function"
    },
    {
      "inputs": [
        {
          "components": [
            {
              "internalType": "uint32",
              "name": "srcEid",
              "type": "uint32"
            },
            {
              "internalType": "bytes32",
              "name": "sender",
              "type": "bytes32"
            },
            {
              "internalType": "uint64",
              "name": "nonce",
              "type": "uint64"
            }
          ],
          "internalType": "struct Origin",
          "name": "_origin",
          "type": "tuple"
        },
        {
          "internalType": "bytes32",
          "name": "_guid",
          "type": "bytes32"
        },
        {
          "internalType": "bytes",
          "name": "_message",
          "type": "bytes"
        },
        {
          "internalType": "address",
          "name": "_executor",
          "type": "address"
        },
        {
          "internalType": "bytes",
          "name": "_extraData",
          "type": "bytes"
        }
      ],
      "name": "lzReceive",
      "outputs": [],
      "stateMutability": "payable",
      "type": "function"
    },
    {
      "inputs": [
        {
          "components": [
            {
              "components": [
                {
                  "internalType": "uint32",
                  "name": "srcEid",
                  "type": "uint32"
                },
                {
                  "internalType": "bytes32",
                  "name": "sender",
                  "type": "bytes32"
                },
                {
                  "internalType": "uint64",
                  "name": "nonce",
                  "type": "uint64"
                }
              ],
              "internalType": "struct Origin",
              "name": "origin",
              "type": "tuple"
            },
            {
              "internalType": "uint32",
              "name": "dstEid",
              "type": "uint32"
            },
            {
              "internalType": "address",
              "name": "receiver",
              "type": "address"
            },
            {
              "internalType": "bytes32",
              "name": "guid",
              "type": "bytes32"
            },
            {
              "internalType": "uint256",
              "name": "value",
              "type": "uint256"
            },
            {
              "internalType": "address",
              "name": "executor",
              "type": "address"
            },
            {
              "internalType": "bytes",
              "name": "message",
              "type": "bytes"
            },
            {
              "internalType": "bytes",
              "name": "extraData",
              "type": "bytes"
            }
          ],
          "internalType": "struct InboundPacket[]",
          "name": "_packets",
          "type": "tuple[]"
        }
      ],
      "name": "lzReceiveAndRevert",
      "outputs": [],
      "stateMutability": "payable",
      "type": "function"
    },
    {
      "inputs": [
        {
          "components": [
            {
              "internalType": "uint32",
              "name": "srcEid",
              "type": "uint32"
            },
            {
              "internalType": "bytes32",
              "name": "sender",
              "type": "bytes32"
            },
            {
              "internalType": "uint64",
              "name": "nonce",
              "type": "uint64"
            }
          ],
          "internalType": "struct Origin",
          "name": "_origin",
          "type": "tuple"
        },
        {
          "internalType": "bytes32",
          "name": "_guid",
          "type": "bytes32"
        },
        {
          "internalType": "bytes",
          "name": "_message",
          "type": "bytes"
        },
        {
          "internalType": "address",
          "name": "_executor",
          "type": "address"
        },
        {
          "internalType": "bytes",
          "name": "_extraData",
          "type": "bytes"
        }
      ],
      "name": "lzReceiveSimulate",
      "outputs": [],
      "stateMutability": "payable",
      "type": "function"
    },
    {
      "inputs": [],
      "name": "msgInspector",
      "outputs": [
        {
          "internalType": "address",
          "name": "",
          "type": "address"
        }
      ],
      "stateMutability": "view",
      "type": "function"
    },
    {
      "inputs": [],
      "name": "name",
      "outputs": [
        {
          "internalType": "string",
          "name": "",
          "type": "string"
        }
      ],
      "stateMutability": "view",
      "type": "function"
    },
    {
      "inputs": [
        {
          "internalType": "uint32",
          "name": "",
          "type": "uint32"
        },
        {
          "internalType": "bytes32",
          "name": "",
          "type": "bytes32"
        }
      ],
      "name": "nextNonce",
      "outputs": [
        {
          "internalType": "uint64",
          "name": "nonce",
          "type": "uint64"
        }
      ],
      "stateMutability": "view",
      "type": "function"
    },
    {
      "inputs": [],
      "name": "oApp",
      "outputs": [
        {
          "internalType": "address",
          "name": "",
          "type": "address"
        }
      ],
      "stateMutability": "view",
      "type": "function"
    },
    {
      "inputs": [],
      "name": "oAppVersion",
      "outputs": [
        {
          "internalType": "uint64",
          "name": "senderVersion",
          "type": "uint64"
        },
        {
          "internalType": "uint64",
          "name": "receiverVersion",
          "type": "uint64"
        }
      ],
      "stateMutability": "pure",
      "type": "function"
    },
    {
      "inputs": [],
      "name": "oftVersion",
      "outputs": [
        {
          "internalType": "bytes4",
          "name": "interfaceId",
          "type": "bytes4"
        },
        {
          "internalType": "uint64",
          "name": "version",
          "type": "uint64"
        }
      ],
      "stateMutability": "pure",
      "type": "function"
    },
    {
      "inputs": [],
      "name": "owner",
      "outputs": [
        {
          "internalType": "address",
          "name": "",
          "type": "address"
        }
      ],
      "stateMutability": "view",
      "type": "function"
    },
    {
      "inputs": [
        {
          "internalType": "uint32",
          "name": "eid",
          "type": "uint32"
        }
      ],
      "name": "peers",
      "outputs": [
        {
          "internalType": "bytes32",
          "name": "peer",
          "type": "bytes32"
        }
      ],
      "stateMutability": "view",
      "type": "function"
    },
    {
      "inputs": [],
      "name": "preCrime",
      "outputs": [
        {
          "internalType": "address",
          "name": "",
          "type": "address"
        }
      ],
      "stateMutability": "view",
      "type": "function"
    },
    {
      "inputs": [
        {
          "components": [
            {
              "internalType": "uint32",
              "name": "dstEid",
              "type": "uint32"
            },
            {
              "internalType": "bytes32",
              "name": "to",
              "type": "bytes32"
            },
            {
              "internalType": "uint256",
              "name": "amountLD",
              "type": "uint256"
            },
            {
              "internalType": "uint256",
              "name": "minAmountLD",
              "type": "uint256"
            },
            {
              "internalType": "bytes",
              "name": "extraOptions",
              "type": "bytes"
            },
            {
              "internalType": "bytes",
              "name": "composeMsg",
              "type": "bytes"
            },
            {
              "internalType": "bytes",
              "name": "oftCmd",
              "type": "bytes"
            }
          ],
          "internalType": "struct SendParam",
          "name": "_sendParam",
          "type": "tuple"
        }
      ],
      "name": "quoteOFT",
      "outputs": [
        {
          "components": [
            {
              "internalType": "uint256",
              "name": "minAmountLD",
              "type": "uint256"
            },
            {
              "internalType": "uint256",
              "name": "maxAmountLD",
              "type": "uint256"
            }
          ],
          "internalType": "struct OFTLimit",
          "name": "oftLimit",
          "type": "tuple"
        },
        {
          "components": [
            {
              "internalType": "int256",
              "name": "feeAmountLD",
              "type": "int256"
            },
            {
              "internalType": "string",
              "name": "description",
              "type": "string"
            }
          ],
          "internalType": "struct OFTFeeDetail[]",
          "name": "oftFeeDetails",
          "type": "tuple[]"
        },
        {
          "components": [
            {
              "internalType": "uint256",
              "name": "amountSentLD",
              "type": "uint256"
            },
            {
              "internalType": "uint256",
              "name": "amountReceivedLD",
              "type": "uint256"
            }
          ],
          "internalType": "struct OFTReceipt",
          "name": "oftReceipt",
          "type": "tuple"
        }
      ],
      "stateMutability": "view",
      "type": "function"
    },
    {
      "inputs": [
        {
          "components": [
            {
              "internalType": "uint32",
              "name": "dstEid",
              "type": "uint32"
            },
            {
              "internalType": "bytes32",
              "name": "to",
              "type": "bytes32"
            },
            {
              "internalType": "uint256",
              "name": "amountLD",
              "type": "uint256"
            },
            {
              "internalType": "uint256",
              "name": "minAmountLD",
              "type": "uint256"
            },
            {
              "internalType": "bytes",
              "name": "extraOptions",
              "type": "bytes"
            },
            {
              "internalType": "bytes",
              "name": "composeMsg",
              "type": "bytes"
            },
            {
              "internalType": "bytes",
              "name": "oftCmd",
              "type": "bytes"
            }
          ],
          "internalType": "struct SendParam",
          "name": "_sendParam",
          "type": "tuple"
        },
        {
          "internalType": "bool",
          "name": "_payInLzToken",
          "type": "bool"
        }
      ],
      "name": "quoteSend",
      "outputs": [
        {
          "components": [
            {
              "internalType": "uint256",
              "name": "nativeFee",
              "type": "uint256"
            },
            {
              "internalType": "uint256",
              "name": "lzTokenFee",
              "type": "uint256"
            }
          ],
          "internalType": "struct MessagingFee",
          "name": "msgFee",
          "type": "tuple"
        }
      ],
      "stateMutability": "view",
      "type": "function"
    },
    {
      "inputs": [],
      "name": "renounceOwnership",
      "outputs": [],
      "stateMutability": "nonpayable",
      "type": "function"
    },
    {
      "inputs": [
        {
          "components": [
            {
              "internalType": "uint32",
              "name": "dstEid",
              "type": "uint32"
            },
            {
              "internalType": "bytes32",
              "name": "to",
              "type": "bytes32"
            },
            {
              "internalType": "uint256",
              "name": "amountLD",
              "type": "uint256"
            },
            {
              "internalType": "uint256",
              "name": "minAmountLD",
              "type": "uint256"
            },
            {
              "internalType": "bytes",
              "name": "extraOptions",
              "type": "bytes"
            },
            {
              "internalType": "bytes",
              "name": "composeMsg",
              "type": "bytes"
            },
            {
              "internalType": "bytes",
              "name": "oftCmd",
              "type": "bytes"
            }
          ],
          "internalType": "struct SendParam",
          "name": "_sendParam",
          "type": "tuple"
        },
        {
          "components": [
            {
              "internalType": "uint256",
              "name": "nativeFee",
              "type": "uint256"
            },
            {
              "internalType": "uint256",
              "name": "lzTokenFee",
              "type": "uint256"
            }
          ],
          "internalType": "struct MessagingFee",
          "name": "_fee",
          "type": "tuple"
        },
        {
          "internalType": "address",
          "name": "_refundAddress",
          "type": "address"
        }
      ],
      "name": "send",
      "outputs": [
        {
          "components": [
            {
              "internalType": "bytes32",
              "name": "guid",
              "type": "bytes32"
            },
            {
              "internalType": "uint64",
              "name": "nonce",
              "type": "uint64"
            },
            {
              "components": [
                {
                  "internalType": "uint256",
                  "name": "nativeFee",
                  "type": "uint256"
                },
                {
                  "internalType": "uint256",
                  "name": "lzTokenFee",
                  "type": "uint256"
                }
              ],
              "internalType": "struct MessagingFee",
              "name": "fee",
              "type": "tuple"
            }
          ],
          "internalType": "struct MessagingReceipt",
          "name": "msgReceipt",
          "type": "tuple"
        },
        {
          "components": [
            {
              "internalType": "uint256",
              "name": "amountSentLD",
              "type": "uint256"
            },
            {
              "internalType": "uint256",
              "name": "amountReceivedLD",
              "type": "uint256"
            }
          ],
          "internalType": "struct OFTReceipt",
          "name": "oftReceipt",
          "type": "tuple"
        }
      ],
      "stateMutability": "payable",
      "type": "function"
    },
    {
      "inputs": [
        {
          "internalType": "address",
          "name": "_delegate",
          "type": "address"
        }
      ],
      "name": "setDelegate",
      "outputs": [],
      "stateMutability": "nonpayable",
      "type": "function"
    },
    {
      "inputs": [
        {
          "components": [
            {
              "internalType": "uint32",
              "name": "eid",
              "type": "uint32"
            },
            {
              "internalType": "uint16",
              "name": "msgType",
              "type": "uint16"
            },
            {
              "internalType": "bytes",
              "name": "options",
              "type": "bytes"
            }
          ],
          "internalType": "struct EnforcedOptionParam[]",
          "name": "_enforcedOptions",
          "type": "tuple[]"
        }
      ],
      "name": "setEnforcedOptions",
      "outputs": [],
      "stateMutability": "nonpayable",
      "type": "function"
    },
    {
      "inputs": [
        {
          "internalType": "address",
          "name": "_msgInspector",
          "type": "address"
        }
      ],
      "name": "setMsgInspector",
      "outputs": [],
      "stateMutability": "nonpayable",
      "type": "function"
    },
    {
      "inputs": [
        {
          "internalType": "uint32",
          "name": "_eid",
          "type": "uint32"
        },
        {
          "internalType": "bytes32",
          "name": "_peer",
          "type": "bytes32"
        }
      ],
      "name": "setPeer",
      "outputs": [],
      "stateMutability": "nonpayable",
      "type": "function"
    },
    {
      "inputs": [
        {
          "internalType": "address",
          "name": "_preCrime",
          "type": "address"
        }
      ],
      "name": "setPreCrime",
      "outputs": [],
      "stateMutability": "nonpayable",
      "type": "function"
    },
    {
      "inputs": [],
      "name": "sharedDecimals",
      "outputs": [
        {
          "internalType": "uint8",
          "name": "",
          "type": "uint8"
        }
      ],
      "stateMutability": "view",
      "type": "function"
    },
    {
      "inputs": [],
      "name": "symbol",
      "outputs": [
        {
          "internalType": "string",
          "name": "",
          "type": "string"
        }
      ],
      "stateMutability": "view",
      "type": "function"
    },
    {
      "inputs": [],
      "name": "token",
      "outputs": [
        {
          "internalType": "address",
          "name": "",
          "type": "address"
        }
      ],
      "stateMutability": "view",
      "type": "function"
    },
    {
      "inputs": [],
      "name": "totalSupply",
      "outputs": [
        {
          "internalType": "uint256",
          "name": "",
          "type": "uint256"
        }
      ],
      "stateMutability": "view",
      "type": "function"
    },
    {
      "inputs": [
        {
          "internalType": "address",
          "name": "to",
          "type": "address"
        },
        {
          "internalType": "uint256",
          "name": "value",
          "type": "uint256"
        }
      ],
      "name": "transfer",
      "outputs": [
        {
          "internalType": "bool",
          "name": "",
          "type": "bool"
        }
      ],
      "stateMutability": "nonpayable",
      "type": "function"
    },
    {
      "inputs": [
        {
          "internalType": "address",
          "name": "from",
          "type": "address"
        },
        {
          "internalType": "address",
          "name": "to",
          "type": "address"
        },
        {
          "internalType": "uint256",
          "name": "value",
          "type": "uint256"
        }
      ],
      "name": "transferFrom",
      "outputs": [
        {
          "internalType": "bool",
          "name": "",
          "type": "bool"
        }
      ],
      "stateMutability": "nonpayable",
      "type": "function"
    },
    {
      "inputs": [
        {
          "internalType": "address",
          "name": "newOwner",
          "type": "address"
        }
      ],
      "name": "transferOwnership",
      "outputs": [],
      "stateMutability": "nonpayable",
      "type": "function"
    }
  ],
  "bytecode": "0x6101006040523480156200001257600080fd5b506040516200399c3803806200399c833981016040819052620000359162000482565b8383838369d3c21bcecceda10000004685858585838360128484818181818f6001600160a01b0381166200008457604051631e4fbdf760e01b8152600060048201526024015b60405180910390fd5b6200008f81620001d7565b506001600160a01b038083166080528116620000be57604051632d618d8160e21b815260040160405180910390fd5b60805160405163ca5eb5e160e01b81526001600160a01b0383811660048301529091169063ca5eb5e190602401600060405180830381600087803b1580156200010657600080fd5b505af11580156200011b573d6000803e3d6000fd5b5050505050505050620001336200022760201b60201c565b60ff168360ff1610156200015a576040516301e9714b60e41b815260040160405180910390fd5b6200016760068462000527565b6200017490600a62000646565b60a05250600891506200018a90508382620006ef565b506009620001998282620006ef565b50505060c086905250505060e08290525046819003620001c757620001c78360c0516200022c60201b60201c565b50505050505050505050620007d1565b600080546001600160a01b038381166001600160a01b0319831681178455604051919092169283917f8be0079c531659141344cd1fd0a4f28419497f9722a3daafe3b4186f6b6457e09190a35050565b600690565b6001600160a01b038216620002585760405163ec442f0560e01b8152600060048201526024016200007b565b62000266600083836200026a565b5050565b6001600160a01b038316620002995780600760008282546200028d9190620007bb565b909155506200030d9050565b6001600160a01b03831660009081526005602052604090205481811015620002ee5760405163391434e360e21b81526001600160a01b038516600482015260248101829052604481018390526064016200007b565b6001600160a01b03841660009081526005602052604090209082900390555b6001600160a01b0382166200032b576007805482900390556200034a565b6001600160a01b03821660009081526005602052604090208054820190555b816001600160a01b0316836001600160a01b03167fddf252ad1be2c89b69c2b068fc378daa952ba7f163c4a11628f55a4df523b3ef836040516200039091815260200190565b60405180910390a3505050565b634e487b7160e01b600052604160045260246000fd5b600082601f830112620003c557600080fd5b81516001600160401b0380821115620003e257620003e26200039d565b604051601f8301601f19908116603f011681019082821181831017156200040d576200040d6200039d565b81604052838152602092508660208588010111156200042b57600080fd5b600091505b838210156200044f578582018301518183018401529082019062000430565b6000602085830101528094505050505092915050565b80516001600160a01b03811681146200047d57600080fd5b919050565b600080600080608085870312156200049957600080fd5b84516001600160401b0380821115620004b157600080fd5b620004bf88838901620003b3565b95506020870151915080821115620004d657600080fd5b50620004e587828801620003b3565b935050620004f66040860162000465565b9150620005066060860162000465565b905092959194509250565b634e487b7160e01b600052601160045260246000fd5b60ff828116828216039081111562000543576200054362000511565b92915050565b600181815b808511156200058a5781600019048211156200056e576200056e62000511565b808516156200057c57918102915b93841c93908002906200054e565b509250929050565b600082620005a35750600162000543565b81620005b25750600062000543565b8160018114620005cb5760028114620005d657620005f6565b600191505062000543565b60ff841115620005ea57620005ea62000511565b50506001821b62000543565b5060208310610133831016604e8410600b84101617156200061b575081810a62000543565b62000627838362000549565b80600019048211156200063e576200063e62000511565b029392505050565b60006200065760ff84168362000592565b9392505050565b600181811c908216806200067357607f821691505b6020821081036200069457634e487b7160e01b600052602260045260246000fd5b50919050565b601f821115620006ea576000816000526020600020601f850160051c81016020861015620006c55750805b601f850160051c820191505b81811015620006e657828155600101620006d1565b5050505b505050565b81516001600160401b038111156200070b576200070b6200039d565b62000723816200071c84546200065e565b846200069a565b602080601f8311600181146200075b5760008415620007425750858301515b600019600386901b1c1916600185901b178555620006e6565b600085815260208120601f198616915b828110156200078c578886015182559484019460019091019084016200076b565b5085821015620007ab5787850151600019600388901b60f8161c191681555b5050505050600190811b01905550565b8082018082111562000543576200054362000511565b60805160a05160c05160e05161314b6200085160003960006107700152600061043c01526000818161066801528181611b1f01528181611b940152611d9801526000818161052701528181610acb0152818161111b01528181611392015281816116fd01528181611e900152818161200001526120b7015261314b6000f3fe6080604052600436106102675760003560e01c80637d25a05e11610144578063bc70b354116100b6578063d045a0dc1161007a578063d045a0dc146107d3578063d4243885146107e6578063dd62ed3e14610806578063f2fde38b1461084c578063fc0c546a146104ab578063ff7bd03d1461086c57600080fd5b8063bc70b3541461072b578063bd815db01461074b578063c58417101461075e578063c7c7f5b314610792578063ca5eb5e1146107b357600080fd5b8063963efcaa11610108578063963efcaa146106565780639f68b9641461068a578063a9059cbb1461069e578063b731ea0a146106be578063b98bd070146106de578063bb0b6a53146106fe57600080fd5b80637d25a05e146105b457806382413eac146105ef578063857749b01461060f5780638da5cb5b1461062357806395d89b411461064157600080fd5b8063313ce567116101dd5780635535d461116101a15780635535d461146104be5780635a0dfe4d146104de5780635e280f11146105155780636fc1b31e1461054957806370a0823114610569578063715018a61461059f57600080fd5b8063313ce5671461040857806332cb6b0c1461042a5780633400288b1461045e5780633b6f743b1461047e57806352ae2879146104ab57600080fd5b8063134d4f251161022f578063134d4f2514610343578063156a0d0f1461036b57806317442b701461039257806318160ddd146103b45780631f5e1334146103d357806323b872dd146103e857600080fd5b806306fdde031461026c578063095ea7b3146102975780630d35b415146102c7578063111ecdad146102f657806313137d651461032e575b600080fd5b34801561027857600080fd5b5061028161088c565b60405161028e919061222f565b60405180910390f35b3480156102a357600080fd5b506102b76102b2366004612257565b61091e565b604051901515815260200161028e565b3480156102d357600080fd5b506102e76102e236600461229b565b610938565b60405161028e939291906122cf565b34801561030257600080fd5b50600454610316906001600160a01b031681565b6040516001600160a01b03909116815260200161028e565b61034161033c3660046123c2565b610ac9565b005b34801561034f57600080fd5b50610358600281565b60405161ffff909116815260200161028e565b34801561037757600080fd5b506040805162b9270b60e21b8152600160208201520161028e565b34801561039e57600080fd5b506040805160018152600260208201520161028e565b3480156103c057600080fd5b506007545b60405190815260200161028e565b3480156103df57600080fd5b50610358600181565b3480156103f457600080fd5b506102b7610403366004612461565b610b89565b34801561041457600080fd5b5060125b60405160ff909116815260200161028e565b34801561043657600080fd5b506103c57f000000000000000000000000000000000000000000000000000000000000000081565b34801561046a57600080fd5b506103416104793660046124bb565b610baf565b34801561048a57600080fd5b5061049e6104993660046124e5565b610bc5565b60405161028e9190612536565b3480156104b757600080fd5b5030610316565b3480156104ca57600080fd5b506102816104d936600461255f565b610c2c565b3480156104ea57600080fd5b506102b76104f93660046124bb565b63ffffffff919091166000908152600160205260409020541490565b34801561052157600080fd5b506103167f000000000000000000000000000000000000000000000000000000000000000081565b34801561055557600080fd5b50610341610564366004612592565b610cd1565b34801561057557600080fd5b506103c5610584366004612592565b6001600160a01b031660009081526005602052604090205490565b3480156105ab57600080fd5b50610341610d2e565b3480156105c057600080fd5b506105d76105cf3660046124bb565b600092915050565b6040516001600160401b03909116815260200161028e565b3480156105fb57600080fd5b506102b761060a3660046125af565b610d42565b34801561061b57600080fd5b506006610418565b34801561062f57600080fd5b506000546001600160a01b0316610316565b34801561064d57600080fd5b50610281610d57565b34801561066257600080fd5b506103c57f000000000000000000000000000000000000000000000000000000000000000081565b34801561069657600080fd5b5060006102b7565b3480156106aa57600080fd5b506102b76106b9366004612257565b610d66565b3480156106ca57600080fd5b50600254610316906001600160a01b031681565b3480156106ea57600080fd5b506103416106f9366004612659565b610d74565b34801561070a57600080fd5b506103c561071936600461269a565b60016020526000908152604090205481565b34801561073757600080fd5b506102816107463660046126b5565b610d8e565b610341610759366004612659565b610f36565b34801561076a57600080fd5b506103c57f000000000000000000000000000000000000000000000000000000000000000081565b6107a56107a0366004612715565b6110c0565b60405161028e929190612782565b3480156107bf57600080fd5b506103416107ce366004612592565b6110f4565b6103416107e13660046123c2565b61117a565b3480156107f257600080fd5b50610341610801366004612592565b6111a9565b34801561081257600080fd5b506103c56108213660046127d4565b6001600160a01b03918216600090815260066020908152604080832093909416825291909152205490565b34801561085857600080fd5b50610341610867366004612592565b6111ff565b34801561087857600080fd5b506102b7610887366004612802565b61123d565b60606008805461089b9061281e565b80601f01602080910402602001604051908101604052809291908181526020018280546108c79061281e565b80156109145780601f106108e957610100808354040283529160200191610914565b820191906000526020600020905b8154815290600101906020018083116108f757829003601f168201915b5050505050905090565b60003361092c818585611273565b60019150505b92915050565b6040805180820190915260008082526020820152606061096b604051806040016040528060008152602001600081525090565b600080306001600160a01b031663fc0c546a6040518163ffffffff1660e01b8152600401602060405180830381865afa1580156109ac573d6000803e3d6000fd5b505050506040513d601f19601f820116820180604052508101906109d09190612852565b6001600160a01b03166318160ddd6040518163ffffffff1660e01b8152600401602060405180830381865afa158015610a0d573d6000803e3d6000fd5b505050506040513d601f19601f82011682018060405250810190610a31919061286f565b60408051808201825284815260208082018490528251600080825291810190935290975091925090610a86565b604080518082019091526000815260606020820152815260200190600190039081610a5e5790505b509350600080610aab604089013560608a0135610aa660208c018c61269a565b611285565b60408051808201909152918252602082015296989597505050505050565b7f00000000000000000000000000000000000000000000000000000000000000006001600160a01b03163314610b19576040516391ac5e4f60e01b81523360048201526024015b60405180910390fd5b60208701803590610b3390610b2e908a61269a565b6112c1565b14610b7157610b45602088018861269a565b60405163309afaf360e21b815263ffffffff909116600482015260208801356024820152604401610b10565b610b80878787878787876112fd565b50505050505050565b600033610b97858285611464565b610ba28585856114e3565b60019150505b9392505050565b610bb7611542565b610bc1828261156f565b5050565b60408051808201909152600080825260208201526000610bf560408501356060860135610aa6602088018861269a565b915050600080610c0586846115c4565b9092509050610c22610c1a602088018861269a565b8383886116e7565b9695505050505050565b600360209081526000928352604080842090915290825290208054610c509061281e565b80601f0160208091040260200160405190810160405280929190818152602001828054610c7c9061281e565b8015610cc95780601f10610c9e57610100808354040283529160200191610cc9565b820191906000526020600020905b815481529060010190602001808311610cac57829003601f168201915b505050505081565b610cd9611542565b600480546001600160a01b0319166001600160a01b0383169081179091556040519081527ff0be4f1e87349231d80c36b33f9e8639658eeaf474014dee15a3e6a4d4414197906020015b60405180910390a150565b610d36611542565b610d4060006117c8565b565b6001600160a01b03811630145b949350505050565b60606009805461089b9061281e565b60003361092c8185856114e3565b610d7c611542565b610bc1610d89828461293f565b611818565b63ffffffff8416600090815260036020908152604080832061ffff87168452909152812080546060929190610dc29061281e565b80601f0160208091040260200160405190810160405280929190818152602001828054610dee9061281e565b8015610e3b5780601f10610e1057610100808354040283529160200191610e3b565b820191906000526020600020905b815481529060010190602001808311610e1e57829003601f168201915b505050505090508051600003610e8b5783838080601f016020809104026020016040519081016040528093929190818152602001838380828437600092019190915250929450610d4f9350505050565b6000839003610e9b579050610d4f565b60028310610f1957610ee284848080601f01602080910402602001604051908101604052809392919081815260200183838082843760009201919091525061191f92505050565b80610ef08460028188612a54565b604051602001610f0293929190612a7e565b604051602081830303815290604052915050610d4f565b8383604051639a6d49cd60e01b8152600401610b10929190612acf565b60005b8181101561103f5736838383818110610f5457610f54612ae3565b9050602002810190610f669190612af9565b9050610f99610f78602083018361269a565b602083013563ffffffff919091166000908152600160205260409020541490565b610fa35750611037565b3063d045a0dc60c08301358360a0810135610fc2610100830183612b1a565b610fd3610100890160e08a01612592565b610fe16101208a018a612b1a565b6040518963ffffffff1660e01b81526004016110039796959493929190612b75565b6000604051808303818588803b15801561101c57600080fd5b505af1158015611030573d6000803e3d6000fd5b5050505050505b600101610f39565b50336001600160a01b0316638e9e70996040518163ffffffff1660e01b8152600401600060405180830381865afa15801561107e573d6000803e3d6000fd5b505050506040513d6000823e601f3d908101601f191682016040526110a69190810190612bfb565b604051638351eea760e01b8152600401610b10919061222f565b6110c8612198565b60408051808201909152600080825260208201526110e785858561194b565b915091505b935093915050565b6110fc611542565b60405163ca5eb5e160e01b81526001600160a01b0382811660048301527f0000000000000000000000000000000000000000000000000000000000000000169063ca5eb5e190602401600060405180830381600087803b15801561115f57600080fd5b505af1158015611173573d6000803e3d6000fd5b5050505050565b33301461119a5760405163029a949d60e31b815260040160405180910390fd5b610b8087878787878787610b71565b6111b1611542565b600280546001600160a01b0319166001600160a01b0383169081179091556040519081527fd48d879cef83a1c0bdda516f27b13ddb1b3f8bbac1c9e1511bb2a659c242776090602001610d23565b611207611542565b6001600160a01b03811661123157604051631e4fbdf760e01b815260006004820152602401610b10565b61123a816117c8565b50565b6000602082018035906001908390611255908661269a565b63ffffffff1681526020810191909152604001600020541492915050565b6112808383836001611a46565b505050565b60008061129185611b1b565b9150819050838110156110ec576040516371c4efed60e01b81526004810182905260248101859052604401610b10565b63ffffffff8116600090815260016020526040812054806109325760405163f6ff4fb760e01b815263ffffffff84166004820152602401610b10565b600061130f61130c8787611b52565b90565b9050600061133b826113296113248a8a611b6a565b611b8d565b61133660208d018d61269a565b611bc2565b9050602886111561140257600061137861135b60608c0160408d01612c68565b61136860208d018d61269a565b846113738c8c611bea565b611c35565b604051633e5ac80960e11b81529091506001600160a01b037f00000000000000000000000000000000000000000000000000000000000000001690637cb59012906113ce9086908d906000908790600401612c85565b600060405180830381600087803b1580156113e857600080fd5b505af11580156113fc573d6000803e3d6000fd5b50505050505b6001600160a01b038216887fefed6d3500546b29533b128a29e3a94d70788727f0507505ac12eaf2e578fd9c61143b60208d018d61269a565b6040805163ffffffff9092168252602082018690520160405180910390a3505050505050505050565b6001600160a01b038381166000908152600660209081526040808320938616835292905220546000198110156114dd57818110156114ce57604051637dc7a0d960e11b81526001600160a01b03841660048201526024810182905260448101839052606401610b10565b6114dd84848484036000611a46565b50505050565b6001600160a01b03831661150d57604051634b637e8f60e11b815260006004820152602401610b10565b6001600160a01b0382166115375760405163ec442f0560e01b815260006004820152602401610b10565b611280838383611c67565b6000546001600160a01b03163314610d405760405163118cdaa760e01b8152336004820152602401610b10565b63ffffffff8216600081815260016020908152604091829020849055815192835282018390527f238399d427b947898edb290f5ff0f9109849b1c3ba196a42e35f00c50a54b98b910160405180910390a15050565b606080600061162185602001356115da86611d91565b6115e760a0890189612b1a565b8080601f016020809104026020016040519081016040528093929190818152602001838380828437600092019190915250611dbd92505050565b9093509050600081611634576001611637565b60025b9050611657611649602088018861269a565b8261074660808a018a612b1a565b6004549093506001600160a01b031680156116dd5760405163043a78eb60e01b81526001600160a01b0382169063043a78eb9061169a9088908890600401612cb6565b602060405180830381865afa1580156116b7573d6000803e3d6000fd5b505050506040513d601f19601f820116820180604052508101906116db9190612cdb565b505b5050509250929050565b60408051808201909152600080825260208201527f00000000000000000000000000000000000000000000000000000000000000006001600160a01b031663ddc28c586040518060a001604052808863ffffffff16815260200161174a896112c1565b8152602001878152602001868152602001851515815250306040518363ffffffff1660e01b815260040161177f929190612cf8565b6040805180830381865afa15801561179b573d6000803e3d6000fd5b505050506040513d601f19601f820116820180604052508101906117bf9190612da1565b95945050505050565b600080546001600160a01b038381166001600160a01b0319831681178455604051919092169283917f8be0079c531659141344cd1fd0a4f28419497f9722a3daafe3b4186f6b6457e09190a35050565b60005b81518110156118ef5761184a82828151811061183957611839612ae3565b60200260200101516040015161191f565b81818151811061185c5761185c612ae3565b6020026020010151604001516003600084848151811061187e5761187e612ae3565b60200260200101516000015163ffffffff1663ffffffff16815260200190815260200160002060008484815181106118b8576118b8612ae3565b60200260200101516020015161ffff1661ffff16815260200190815260200160002090816118e69190612e0d565b5060010161181b565b507fbe4864a8e820971c0247f5992e2da559595f7bf076a21cb5928d443d2a13b67481604051610d239190612ecc565b600281015161ffff8116600314610bc15781604051639a6d49cd60e01b8152600401610b10919061222f565b611953612198565b604080518082019091526000808252602082015260008061198a33604089013560608a013561198560208c018c61269a565b611e37565b9150915060008061199b89846115c4565b90925090506119c76119b060208b018b61269a565b83836119c1368d90038d018d612f57565b8b611e5d565b60408051808201909152858152602080820186905282519298509096503391907f85496b760a4b7f8d66384b9df21b381f5d1b1e79f229a47aaf4c232edc2fe59a90611a15908d018d61269a565b6040805163ffffffff909216825260208201899052810187905260600160405180910390a350505050935093915050565b6001600160a01b038416611a705760405163e602df0560e01b815260006004820152602401610b10565b6001600160a01b038316611a9a57604051634a1406b160e11b815260006004820152602401610b10565b6001600160a01b03808516600090815260066020908152604080832093871683529290522082905580156114dd57826001600160a01b0316846001600160a01b03167f8c5be1e5ebec7d5bd14f71427d1e84f3dd0314c0f7b2291e5b200ac8c7c3b92584604051611b0d91815260200190565b60405180910390a350505050565b60007f0000000000000000000000000000000000000000000000000000000000000000611b488184612f9f565b6109329190612fc1565b6000611b616020828486612a54565b610ba891612fd8565b6000611b7a602860208486612a54565b611b8391612ff6565b60c01c9392505050565b60006109327f00000000000000000000000000000000000000000000000000000000000000006001600160401b038416612fc1565b60006001600160a01b038416611bd85761dead93505b611be28484611f68565b509092915050565b6060611bf98260288186612a54565b8080601f016020809104026020016040519081016040528093929190818152602001838380828437600092019190915250929695505050505050565b606084848484604051602001611c4e9493929190613026565b6040516020818303038152906040529050949350505050565b6001600160a01b038316611c92578060076000828254611c879190613075565b90915550611d049050565b6001600160a01b03831660009081526005602052604090205481811015611ce55760405163391434e360e21b81526001600160a01b03851660048201526024810182905260448101839052606401610b10565b6001600160a01b03841660009081526005602052604090209082900390555b6001600160a01b038216611d2057600780548290039055611d3f565b6001600160a01b03821660009081526005602052604090208054820190555b816001600160a01b0316836001600160a01b03167fddf252ad1be2c89b69c2b068fc378daa952ba7f163c4a11628f55a4df523b3ef83604051611d8491815260200190565b60405180910390a3505050565b60006109327f000000000000000000000000000000000000000000000000000000000000000083612f9f565b8051606090151580611e06578484604051602001611df292919091825260c01b6001600160c01b031916602082015260280190565b604051602081830303815290604052611e2d565b84843385604051602001611e1d9493929190613088565b6040516020818303038152906040525b9150935093915050565b600080611e45858585611285565b9092509050611e548683611f9e565b94509492505050565b611e65612198565b6000611e748460000151611fd4565b602085015190915015611e8e57611e8e8460200151611ffc565b7f00000000000000000000000000000000000000000000000000000000000000006001600160a01b0316632637a450826040518060a001604052808b63ffffffff168152602001611ede8c6112c1565b81526020018a815260200189815260200160008960200151111515815250866040518463ffffffff1660e01b8152600401611f1a929190612cf8565b60806040518083038185885af1158015611f38573d6000803e3d6000fd5b50505050506040513d601f19601f82011682018060405250810190611f5d91906130cb565b979650505050505050565b6001600160a01b038216611f925760405163ec442f0560e01b815260006004820152602401610b10565b610bc160008383611c67565b6001600160a01b038216611fc857604051634b637e8f60e11b815260006004820152602401610b10565b610bc182600083611c67565b6000813414611ff8576040516304fb820960e51b8152346004820152602401610b10565b5090565b60007f00000000000000000000000000000000000000000000000000000000000000006001600160a01b031663e4fe1d946040518163ffffffff1660e01b8152600401602060405180830381865afa15801561205c573d6000803e3d6000fd5b505050506040513d601f19601f820116820180604052508101906120809190612852565b90506001600160a01b0381166120a9576040516329b99a9560e11b815260040160405180910390fd5b6040805133602482018190527f00000000000000000000000000000000000000000000000000000000000000006001600160a01b0381811660448501526064808501889052855180860390910181526084909401909452602080840180516001600160e01b03166323b872dd60e01b1781528451610bc19688169589936114dd93889360009283929091839182885af18061214a576040513d6000823e3d81fd5b50506000513d9150811561216257806001141561216f565b6001600160a01b0384163b155b156114dd57604051635274afe760e01b81526001600160a01b0385166004820152602401610b10565b60405180606001604052806000801916815260200160006001600160401b031681526020016121da604051806040016040528060008152602001600081525090565b905290565b60005b838110156121fa5781810151838201526020016121e2565b50506000910152565b6000815180845261221b8160208601602086016121df565b601f01601f19169290920160200192915050565b602081526000610ba86020830184612203565b6001600160a01b038116811461123a57600080fd5b6000806040838503121561226a57600080fd5b823561227581612242565b946020939093013593505050565b600060e0828403121561229557600080fd5b50919050565b6000602082840312156122ad57600080fd5b81356001600160401b038111156122c357600080fd5b610d4f84828501612283565b8351815260208085015190820152600060a08201604060a0604085015281865180845260c08601915060c08160051b8701019350602080890160005b8381101561234a5788870360bf1901855281518051885283015183880187905261233787890182612203565b975050938201939082019060010161230b565b50508751606088015250505060208501516080850152509050610d4f565b60006060828403121561229557600080fd5b60008083601f84011261238c57600080fd5b5081356001600160401b038111156123a357600080fd5b6020830191508360208285010111156123bb57600080fd5b9250929050565b600080600080600080600060e0888a0312156123dd57600080fd5b6123e78989612368565b96506060880135955060808801356001600160401b038082111561240a57600080fd5b6124168b838c0161237a565b909750955060a08a0135915061242b82612242565b90935060c0890135908082111561244157600080fd5b5061244e8a828b0161237a565b989b979a50959850939692959293505050565b60008060006060848603121561247657600080fd5b833561248181612242565b9250602084013561249181612242565b929592945050506040919091013590565b803563ffffffff811681146124b657600080fd5b919050565b600080604083850312156124ce57600080fd5b612275836124a2565b801515811461123a57600080fd5b600080604083850312156124f857600080fd5b82356001600160401b0381111561250e57600080fd5b61251a85828601612283565b925050602083013561252b816124d7565b809150509250929050565b815181526020808301519082015260408101610932565b803561ffff811681146124b657600080fd5b6000806040838503121561257257600080fd5b61257b836124a2565b91506125896020840161254d565b90509250929050565b6000602082840312156125a457600080fd5b8135610ba881612242565b60008060008060a085870312156125c557600080fd5b6125cf8686612368565b935060608501356001600160401b038111156125ea57600080fd5b6125f68782880161237a565b909450925050608085013561260a81612242565b939692955090935050565b60008083601f84011261262757600080fd5b5081356001600160401b0381111561263e57600080fd5b6020830191508360208260051b85010111156123bb57600080fd5b6000806020838503121561266c57600080fd5b82356001600160401b0381111561268257600080fd5b61268e85828601612615565b90969095509350505050565b6000602082840312156126ac57600080fd5b610ba8826124a2565b600080600080606085870312156126cb57600080fd5b6126d4856124a2565b93506126e26020860161254d565b925060408501356001600160401b038111156126fd57600080fd5b6127098782880161237a565b95989497509550505050565b6000806000838503608081121561272b57600080fd5b84356001600160401b0381111561274157600080fd5b61274d87828801612283565b9450506040601f198201121561276257600080fd5b50602084019150606084013561277781612242565b809150509250925092565b600060c082019050835182526001600160401b03602085015116602083015260408401516127bd604084018280518252602090810151910152565b5082516080830152602083015160a0830152610ba8565b600080604083850312156127e757600080fd5b82356127f281612242565b9150602083013561252b81612242565b60006060828403121561281457600080fd5b610ba88383612368565b600181811c9082168061283257607f821691505b60208210810361229557634e487b7160e01b600052602260045260246000fd5b60006020828403121561286457600080fd5b8151610ba881612242565b60006020828403121561288157600080fd5b5051919050565b634e487b7160e01b600052604160045260246000fd5b604051606081016001600160401b03811182821017156128c0576128c0612888565b60405290565b604080519081016001600160401b03811182821017156128c0576128c0612888565b604051601f8201601f191681016001600160401b038111828210171561291057612910612888565b604052919050565b60006001600160401b0382111561293157612931612888565b50601f01601f191660200190565b60006001600160401b038084111561295957612959612888565b8360051b602061296a8183016128e8565b86815291850191818101903684111561298257600080fd5b865b84811015612a485780358681111561299c5760008081fd5b880160603682900312156129b05760008081fd5b6129b861289e565b6129c1826124a2565b81526129ce86830161254d565b86820152604080830135898111156129e65760008081fd5b929092019136601f8401126129fb5760008081fd5b8235612a0e612a0982612918565b6128e8565b8181523689838701011115612a235760008081fd5b818986018a830137600091810189019190915290820152845250918301918301612984565b50979650505050505050565b60008085851115612a6457600080fd5b83861115612a7157600080fd5b5050820193919092039150565b60008451612a908184602089016121df565b8201838582376000930192835250909392505050565b81835281816020850137506000828201602090810191909152601f909101601f19169091010190565b602081526000610d4f602083018486612aa6565b634e487b7160e01b600052603260045260246000fd5b6000823561013e19833603018112612b1057600080fd5b9190910192915050565b6000808335601e19843603018112612b3157600080fd5b8301803591506001600160401b03821115612b4b57600080fd5b6020019150368190038213156123bb57600080fd5b6001600160401b038116811461123a57600080fd5b63ffffffff612b83896124a2565b1681526020880135602082015260006040890135612ba081612b60565b6001600160401b03811660408401525087606083015260e06080830152612bcb60e083018789612aa6565b6001600160a01b03861660a084015282810360c0840152612bed818587612aa6565b9a9950505050505050505050565b600060208284031215612c0d57600080fd5b81516001600160401b03811115612c2357600080fd5b8201601f81018413612c3457600080fd5b8051612c42612a0982612918565b818152856020838501011115612c5757600080fd5b6117bf8260208301602086016121df565b600060208284031215612c7a57600080fd5b8135610ba881612b60565b60018060a01b038516815283602082015261ffff83166040820152608060608201526000610c226080830184612203565b604081526000612cc96040830185612203565b82810360208401526117bf8185612203565b600060208284031215612ced57600080fd5b8151610ba8816124d7565b6040815263ffffffff8351166040820152602083015160608201526000604084015160a06080840152612d2e60e0840182612203565b90506060850151603f198483030160a0850152612d4b8282612203565b60809690960151151560c08501525050506001600160a01b039190911660209091015290565b600060408284031215612d8357600080fd5b612d8b6128c6565b9050815181526020820151602082015292915050565b600060408284031215612db357600080fd5b610ba88383612d71565b601f821115611280576000816000526020600020601f850160051c81016020861015612de65750805b601f850160051c820191505b81811015612e0557828155600101612df2565b505050505050565b81516001600160401b03811115612e2657612e26612888565b612e3a81612e34845461281e565b84612dbd565b602080601f831160018114612e6f5760008415612e575750858301515b600019600386901b1c1916600185901b178555612e05565b600085815260208120601f198616915b82811015612e9e57888601518255948401946001909101908401612e7f565b5085821015612ebc5787850151600019600388901b60f8161c191681555b5050505050600190811b01905550565b600060208083018184528085518083526040925060408601915060408160051b87010184880160005b83811015612f4957888303603f190185528151805163ffffffff1684528781015161ffff16888501528601516060878501819052612f3581860183612203565b968901969450505090860190600101612ef5565b509098975050505050505050565b600060408284031215612f6957600080fd5b612f716128c6565b82358152602083013560208201528091505092915050565b634e487b7160e01b600052601160045260246000fd5b600082612fbc57634e487b7160e01b600052601260045260246000fd5b500490565b808202811582820484141761093257610932612f89565b8035602083101561093257600019602084900360031b1b1692915050565b6001600160c01b0319813581811691600885101561301e5780818660080360031b1b83161692505b505092915050565b6001600160401b0360c01b8560c01b16815263ffffffff60e01b8460e01b16600882015282600c8201526000825161306581602c8501602087016121df565b91909101602c0195945050505050565b8082018082111561093257610932612f89565b8481526001600160401b0360c01b8460c01b166020820152826028820152600082516130bb8160488501602087016121df565b9190910160480195945050505050565b6000608082840312156130dd57600080fd5b6130e561289e565b8251815260208301516130f781612b60565b60208201526131098460408501612d71565b6040820152939250505056fea264697066735822122055a3060d4a1dc1bea65c0ccb1d176e1612809d6387c6c4ef53516839a3720e4b64736f6c63430008160033",
  "linkReferences": {},
  "deployedLinkReferences": {}
}